:020000024000BC
:10000000E88A0120E999050011980500E5990500A5
:10001000E5990500E5990500E5990500E5990500D4
:100020000000000000000000000000001D5B050053
:10003000E599050000000000355B05009D5B0500AB
:1000400099660500916505004967050091670500FF
:10005000E97A0500697C0500717D0500497E05008F
:10006000C9800500217205006D730500217205002D
:100070006D730500996D05002D6D0500116E05006D
:10008000516E0500996D05002D6D0500116E05007E
:10009000516E0500C9800500C98005000000000000
:1000A0000000000000000000000000000000000050
:1000B0000000000000000000000000000000000040
:1000C0000000000000000000000000000000000030
:1000D0000000000000000000000000000000000020
:1000E0000000000000000000000000000000000010
:1000F0000000000000000000000000000000000000
:1001000000000000000000000000000000000000EF
:1001100000000000000000000000000000000000DF
:1001200000000000000000000000000000000000CF
:1001300000000000000000000000000000000000BF
:1001400000000000000000000000000000000000AF
:10015000000000000000000000000000000000009F
:10016000000000000000000000000000000000008F
:10017000000000000000000000000000000000007F
:10018000000000000000000000000000000000006F
:10019000000000000000000000000000000000005F
:1001A000000000000000000000000000000000004F
:1001B000000000000000000000000000000000003F
:1001C0000348044B834202D0034B03B118477047E6
:1001D000441300204413002000000000064B074990
:1001E000C91A891048BF0131491003D0044B0BB123
:1001F00001481847704700BF4413002044130020F3
:100200000000000010B5064C237843B9FFF7D8FF73
:10021000044B13B10448AFF300800123237010BDD9
:1002200000140020000000004002070008B5054B44
:100230001BB105490548AFF30080BDE80840FFF752
:10024000CDBF00BF000000000414002040020700E2
:10025000F0B5D0E900600C46124D83B00190A5FBCB
:10026000060C114F4FEA1C4C07FB1C6C0F4B104A3D
:10027000A3FB0C0E4FEA5E1EA3FB0E03A2FB0C02B7
:100280005B09C3EB0313AEEB8303CEEB0E1EACEBAB
:100290008E00009007492046D20A01F029FF20462F
:1002A00003B0F0BD07452EC28051010089888888BF
:1002B000C5B3A291F024060038B50446074B084D9B
:1002C000D3F80310284601F0FBFE064B2846D3F86E
:1002D000031001F0F5FE204638BD00BF000010A05D
:1002E0000425060000001060014801F0E9BE00BFCF
:1002F0001C25060004284AD8F8B500F580143834C7
:10030000E4010D46174621463E224FF6FF701E4679
:1003100009F02EFC216880B24B1C23D0E38F83426E
:1003200029D18A0724D16268930721D1B1F5801FB2
:1003300024D2B2F5801F21D88B18B3F5801F1DD8A9
:100340004FF0FF3009F03AFCA368984219D10DB183
:10035000238C2B800FB123683B600EB16368336040
:100360000020F8BD636801330ED0E38F834202D1D1
:100370006FF00400F8BD4FF0FF30F8BD6FF00100E2
:10038000F8BD6FF00200F8BD6FF00300F8BD4FF04C
:10039000FF307047042838D82DE9F04104460F4655
:1003A000A0B068B316461D4690467822FF2102A8E9
:1003B0001DF0A6FD0F2341462A464FF0FF30ADF851
:1003C000223000960195ADF8207009F0F7FB034646
:1003D00069463E224FF6FF70029309F0C9FB0346BF
:1003E00004F58011383180226846C901ADF83E30ED
:1003F00009F0C8FD802808BF002020B0BDE8F081CA
:10040000034E044DB046AD1BCFE74FF0FF307047B1
:1004100000000400AC020700042814D810B50446FC
:10042000A0B08022FF2168461DF06AFD04F580110E
:10043000383180226846C90109F0A4FD802808BF30
:10044000002020B010BD4FF0FF30704700B585B0E0
:10045000022003AB02AA0DF10601FFF74BFF0028B3
:1004600041D1BDF80630B3F5604F39D1039BA3F5F8
:100470000043B3F5603F39D2029A136803F160413B
:10048000B1F5003F29D29B0727D11A4953688A68E2
:1004900072B1194AA3F5807393421BD8002013F060
:1004A00097F9002818BF6FF0050005B05DF804FB50
:1004B000114903F1FF2202F57B028A42E9D80120AB
:1004C00013F086F9002814BF6FF00400012005B076
:1004D0005DF804FB6FF00600E7E76FF00300E4E768
:1004E0006FF00100E1E74FF0FF30DEE76FF0020050
:1004F000DBE700BF00ED00E0FFFE0300024B986861
:10050000B0FA80F04009704700ED00E000B583B01C
:100510002E4A01AB0DF10201FFF7ECFE002851D18C
:1005200072B602462A4900F1C0030130602841F842
:100530002320F8D100234FF0FF30264903F1200299
:100540000133102B41F82200F8D100234FF0FF3087
:10055000204903F160020133102B41F82200F8D149
:100560004FF0E02100221C4B0A61596841F00071F4
:100570005960596A21F4E021596282F30A8882F3B2
:100580000B88124A116809689960BFF34F8FEFF327
:1005900014839B070BD5EFF3098383F30888EFF3EC
:1005A000148323F0020383F31488BFF36F8F62B6C2
:1005B00013681A6882F30888D3F804F000BF00BFFC
:1005C00000BFFEE703B05DF804FB00BF1C14002071
:1005D0000060004000E100E000ED00E0F8B54FF001
:1005E000205407460E46154600214FF4A0722046BF
:1005F0001DF086FC0020678011F06CFB0346002094
:10060000C4F8A83011F030FB03460020C4F8AC3029
:100610000DF00AFFC4F8B00026B14F2231460C4855
:100620001DF068FD25B14F2229460A481DF062FDE4
:100630004FF49E724FF020514FF0FF3009F0BEFA98
:100640004FF0205302460020C3F83C21F8BD00BF04
:100650000800002858000028002230B585B001238A
:1006600003A9029203F00AFC044678B30022022098
:100670001146FFF7B3FF039B012B1FD0029DC5B1AD
:10068000012D02D0204605B030BD124B9B685BB9EE
:10069000114811F0CDFA2846FFF738FF0F4803F054
:1006A000BDFF204605B030BD002202200C49FFF7F7
:1006B00095FF09F0B7F8204605B030BD0022094982
:1006C0001046009102A903F0D7FCD7E703F0A6FF7C
:1006D000CCE700BF00ED00E0A08601002026060068
:1006E00040260600F4250600F8B5294C1546277C5F
:1006F000A4F58064B4F8C0401E46FFB2A4B200B1B5
:10070000076001B10C600DB100232B700EB1002306
:100710003370A20718D114F0040007D1FB0704D4EA
:1007200087B9003C18BF0124A000F8BD4FF020514C
:100730004FF49E724FF0FF30D1F83C4109F03EFA81
:10074000844203D00420F8BD0120F8BD26B1502218
:10075000304610491DF0FCFE4FF02054D4F8AC0098
:1007600011F08AFAD4F8A80011F0C0FAD4F8B01049
:10077000002909DC25B15022284607491DF0E8FE72
:100780004FF020535888F8BD00200DF099FDF1E797
:1007900000E4014058000028080000280022044915
:1007A000044B0A7404201146A3F8C020FFF716BFBB
:1007B00000E4014000E0014010B5094C82B0002384
:1007C000084A09490948009403F0B2FE0023084A88
:1007D00008490948009303F0ABFE02B010BD00BF0A
:1007E000E9020400590604004826060050260600C7
:1007F000B902040058260600682606002DE9F041DB
:1008000005460E4614462AB102F1FF381F4618EA83
:10081000020308D02346324629460E4808F062FDFE
:100820000020BDE8F081436059B138220021281D25
:100830001DF066FB069BC5E905482E60EF622B6341
:10084000E8E7104619F076F906460028EDD1686011
:10085000E0E700BF7026060060B110B504464068AE
:1008600008B119F0F3F92046BDE810403C22002100
:100870001DF046BB704700BF2DE9F041456915B931
:100880002846BDE8F0810446174688460AF090FFE6
:100890006569D4F808E02369043DED1ABD4228BF1C
:1008A0003D4606467DB1434608EB0501AEEB080028
:1008B000A7691A1813F801CB3A402768994207F83C
:1008C00002C0F5D1AE4423692B442361C4F808E08B
:1008D00023699D4206D0002ED2D10AF06DFF284632
:1008E000BDE8F081E36A002BF5D02046216B9847E4
:1008F000002EC5D1F1E700BFF8B504460D460AF059
:1009000057FF2769A369E168E2681940134022682C
:1009100064695618E41A28B1BC4228BF3C463046E8
:100920002C60F8BD0AF048FFBC4228BF3C46304668
:100930002C60F8BD38B5436904468B4202D804697F
:10094000204638BD0D460AF033FFE368A2692B4408
:100950001340E36023695B1B236124690028EFD106
:100960000AF02AFF204638BD10B52E2104461DF09E
:1009700019FB90B120461DF061FE431E0ED02218D7
:1009800001E0013B0AD012F9011D3029F9D0E256ED
:100990002E2A00D001330022E25410BD0123FAE7D1
:1009A0002DE9F04F57EC106B85B00546002230461C
:1009B0003946534B8DED000B1BF000FB00285BD03C
:1009C00000234FF0090A4FF4807940F2FF1B029395
:1009D0000395D945C8464FF00006A8BFD846012464
:1009E000484D474F18EA040F07D0D5E90023304699
:1009F00039461BF05DF806460F466400A04505F138
:100A00000805EFDADDE90045304622462B46394637
:100A10001BF0CAFA50B13B463246204629461BF02D
:100A200071F9029BCDE900014B440293BAF1010A2E
:100A30004FEA6909CDD1DDE9006700223046394629
:100A40002F4B039D1BF0C4FA78B130463946002283
:100A50002D4B1BF057F941EC100B029B0133029315
:100A6000029B2B6005B0BDE8F08F9DED000B029B53
:100A70002B6005B0BDE8F08F09274FF4807640F277
:100A8000FF184FF0000ADFF878B002900395464552
:100A9000B1464FF00104A8BFC14650465946194D12
:100AA00019EA040F03D0D5E900231BF001F8640014
:100AB000A14505F10805F3DA02460B4650465946B2
:100AC0001BF020F9DDE9002304460D461BF076FA01
:100AD00050B1DDE900012B4622461BF013F9029BC1
:100AE000CDE900019B1B0293013F4FEA6606CED180
:100AF0009DED000B039D029B2B6005B0BDE8F08FC0
:100B00000000F03F58AA060000002440FFFFFFFF4E
:100B10002DE9F04F55EC104B85B083460F460192FE
:100B200000230022204629461BF02AFA002869D01B
:100B3000DA4600264FF00008DFF8FC910137424604
:100B40004B46204629461AF0B3FF0D4604461BF0DB
:100B50005FFA53460136012E00F1300203F8012BF3
:100B600005BF2E238AF801309A460AF1020A1AF0CC
:100B700035FF02460B46204629461AF0E1FDBE42EB
:100B800004460D46DBD1002398468AF80030019BCD
:100B9000CDF80C80002B40F0B38058461DF04EFD80
:100BA00028B1431E1BF903202E2A00F0AD806523D7
:100BB000B8F1000F0BF80030B6BF2D232B23C8F17E
:100BC00000080BEB0002B8F1630F53705BDC911C63
:100BD000554BA3FB0802D208A3FB0203DB0803EB7F
:100BE0008303A2EB430302EB8202A8EB420800223C
:100BF000303308F130080B7081F801808A7005B03D
:100C0000BDE8F08F45EC104B03A8FFF7C9FE07F1D4
:100C10000109B9F11F0F55EC104B3CDC01260020F7
:100C2000DFF81881414919EA060F03D0D8E90023FB
:100C30001AF03EFF7600B14508F10808F3DA0246E3
:100C40000B46002039491BF05DF80022384B1AF0A2
:100C50002FFF02460B46204629461AF073FD00225C
:100C6000324B04460D46DDF80C801BF0A7F9002836
:100C700051D02BA3D3E90023204629461AF018FFB0
:100C800004460D460AE02B4BD11CA3FB08035B096D
:100C9000303393709CE7039B03F1FF38DA4600265C
:100CA000C1460022244B204629461AF001FF0D467A
:100CB00004461BF0ADF95346B0460136012E00F153
:100CC000300203F8012B05BF2E238AF801309A4623
:100CD0000AF1020A1AF082FE02460B462046294615
:100CE0001AF02EFD474504460D46DAD10023C846CA
:100CF0008AF80030019BCDF80C80002B3FF44DAFFB
:100D00005846FFF731FE48E7002258460BF803200B
:100D10001DF094FC4BE708F1FF38BFE7AFF300800C
:100D20009A9999999999B93FCDCCCCCC0000F03FD4
:100D30000000E03F1F85EB510000244058AA060048
:100D40002DE9F04F55EC104B81460F4685B000223F
:100D50000023204629461BF013F900283DD0C84641
:100D600000264FF0000ADFF8ACB2013752465B466E
:100D7000204629461AF09CFE0D4604461BF048F911
:100D800043460136012E00F1300203F8012B05BF66
:100D90002E2388F80130984608F102081AF01EFE4A
:100DA00002460B46204629461AF0CAFCBE420446BB
:100DB0000D46DBD1002388F8003048461DF03EFC8C
:100DC00038B1013819F900302E2B02D1002309F86F
:100DD0000030002005B0BDE8F08F45EC104B03A8B3
:100DE000FFF7DEFDDDF80C808DED000BB8F1000F94
:100DF00060DD08EB070ABAF1180F00F3FD8001244B
:100E00000020814D81491AEA040F03D0D5E900235F
:100E10001AF04EFE6400A24505F10805F3DA024619
:100E20000B46002079491AF06DFF0022784B1AF02A
:100E30003FFEDDE900231AF085FC0022734B0446D7
:100E40000D461BF0BBF860B16DA3D3E9002320462B
:100E500029461AF02DFE04460D4608F1010807EB5D
:100E6000080A4F4600264FF02E0B0022694B204601
:100E700029461AF01DFE0D4604461BF0C9F83B46F4
:100E80000136464500F1300203F8012B0ABF87F80E
:100E900001B01F4602371AF0A1FD02460B4620465C
:100EA00029461AF04DFC564504460D46DDD1002377
:100EB0003B7082E7182F00F39F80002F00F099808D
:100EC00001260020DFF840A15049374203D0DAE97B
:100ED00000231AF0EDFD7600B7420AF1080AF4DAB1
:100EE00002460B46002049491AF00CFF0022484BED
:100EF0001AF0DEFD02460B46204629461AF022FC77
:100F00003FA3D3E9002382468B461AF0D1FD00228D
:100F100004460D46504659463C4B1BF04FF80028FE
:100F200064D008F10103012B039333D034A3D3E938
:100F30000023204629461AF0BBFD4FF00008CA46A0
:100F4000002607F1010B334F32463B461AF0B0FD45
:100F50000D4604461BF05CF8534608F10108B8F151
:100F6000010F00F1300203F8012B05BF2E238AF890
:100F700001309A460AF1020A1AF030FD02460B4689
:100F8000204629461AF0DCFBD845DDD100238AF83B
:100F9000003012E7C84600264FF0000ADFF874B0B0
:100FA000013752465B46204629461AF081FD0D4620
:100FB00004461BF02DF843460136012E00F13002A5
:100FC00003F8012B05BF2E2388F80130984608F15D
:100FD00002081AF003FD02460B46204629461AF085
:100FE000AFFBBE4204460D46DBD1E3E654465D4608
:100FF0009CE70022064B7FE74FF0FF30EAE600BF98
:101000009A9999999999B93F58AA06000000F03F1A
:101010000000E03F000024402DE9F04FD0E90067D8
:10102000858B0446A905038C8DB03DD5102BA8BF38
:101030001023019330463946002200231AF0AAFFFC
:1010400000283AD16A0432D52B238DF810300DF1E7
:10105000110B0DF1100A32463B46304639461AF064
:10106000C1FF002840F0BB8027F0004930464946C8
:101070004FF0FF325C4B1AF0B5FF40B9304649469D
:101080004FF0FF32584B1AF08FFF002855D005F073
:101090000F03072B5BD0062B31D0052B36D0002356
:1010A0008BF800302B4639E006230193C2E7AB04EE
:1010B00049D520238DF81030C9E72D2330468DF80F
:1010C000103039464FF0FF326FF480131AF08AFF68
:1010D00040B9304639464FF0FF326FF480131AF0B2
:1010E0006DFF30B305F00F0307F10041072B0F46EA
:1010F00040D0062B0DF1110B0DF1100ACDD147ECAC
:10110000106B58460199FFF71BFE30B147EC106B8E
:10111000584600220199FFF7FBFCA38B23F40073D0
:1011200051462046A38300F00BFAA5830DB0BDE81D
:10113000F08F0DF1110B0DF1100A2C4B18682B4696
:10114000CBF80000EAE70DF1100AD34683E7019BD4
:101150003046012BB8BF01233946984600220023B0
:101160001AF00EFF78B147EC106B41465846FFF776
:10117000E7FDD2E7019B0DF1110B012BB8BF012355
:1011800098460DF1100A47EC106B03A8FFF708FC16
:10119000039B43451ADC5A42424517DC002B47ECBF
:1011A000106B5846A8EB030105DBFFF7C9FD584655
:1011B000FFF7DAFBB1E7FFF7C3FD38B95846FFF791
:1011C000D3FB58461DF03AFA4045A6DD47EC106BBC
:1011D0005846012208F1FF31FFF79AFC9DE7044BC6
:1011E00004932B469AE700BFFFFFEF7F9826060087
:1011F0004E614E002DE9F04F828B054622F0A00390
:10120000D40697B09BB202F0400139D5D0E9007402
:101210008383002940F0D38057EA040204BF43F0DF
:101220002003AB830DF13008A24644465022002132
:1012300002A81CF065FED5F8249095F82260384687
:101240005146324600231BF0D9F8BC46534619F8E4
:101250000220B44573F10003A64607468A4604F807
:10126000012DECD2AB8B03F48152B2F5805F31D10A
:10127000082E2FD1302204F8012CAEF1020429E00F
:1012800004688383002940F0918014B943F020035F
:10129000AB835022002102A80DF130081CF030FE73
:1012A00023464446D5F8249095F82260B3FBF6F225
:1012B000194606FB1230134619F800208E422746C5
:1012C00004F8012DF2D9AB8B03F48152B2F5805FA3
:1012D00000F0DA80EF8B03F00F01202F28BF2027CA
:1012E00004292A8C03F0200C03F0800E00F09F806C
:1012F0009A46A8EB040803F40071BEF1000F40F019
:10130000CB80580400F1DD80C3F3403B4FEA4B1B18
:10131000BCF1000F68D0002970D0002A00F0AC802A
:101320000026202A134628BF2023434540F2DC80B4
:10133000A8EB030214443021A3EB080220460193DA
:101340001CF0DEFD019BBBF1000F00D00133002E2D
:1013500000F0E58003F102080AF44063B3F5406F42
:101360000AF4044A56D0BAF5806F34D0BBF1000FAE
:1013700003D059462846AB6898473EB13021AB6848
:101380002846984731462846AB68984794F900109C
:1013900031B12846AB68984714F9011F0029F8D1EC
:1013A000BAF5044F60D017B0BDE8F08F002CBFF63F
:1013B0006CAF43F0800364428383046069E7002CD0
:1013C000BFF62AAF7F4243F0800364EB4404C0E9D8
:1013D0000074838326E7B845C8D2A7EB08012846E6
:1013E00000F0A2F8B846C1E741F20400034237D04A
:1013F000102E7BD0022E72D0002991D1BBF1000FAC
:101400002BD10AF44063B3F5406F4FF000060AF4A5
:10141000044AA8D1B845A9D2A8EB07031C44A7EBFE
:101420000802302120461CF06BFDB8469EE723F4ED
:10143000F74A1FFA8AFABCF1000F30D1A8EB040872
:10144000BEF1000F40D1590457D461465CE74FF01C
:1014500005084FF02D0B0DF12B0408F10108D0E722
:101460000029CBD066465CE72846A7EB080117B0F9
:10147000BDE8F04F00F058B8BBF10008164618BFA1
:101480004FF00108013467E7082E7FF423AF3022C4
:1014900004F8012CBC1E1DE74FF02D0B38E7214945
:1014A00008688988CDF82B00ADF82F10BEF1000F29
:1014B000CDD113F4804127D14FF005080DF12B0455
:1014C00022E74FF02B0B23E741F204010B424FF0D0
:1014D0002D0BC2D0102E1ED0022E8FD1002199F9D3
:1014E000106000297FF41DAF43462CE799F9116085
:1014F00000297FF416AF434625E741F204010B4271
:101500004FF02B0BE6D1A8E74FF005084FF02B0B5F
:101510000DF12B04A1E7434699F9116016E79846AF
:101520001AE700BF9C26060038B50C1E06DD0546EE
:1015300020212846AB689847013CF9D138BD00BF4F
:101540002DE9F84388460446018CC58BB0F81C9001
:10155000B8F1000F25D019F4007F27D198F9003099
:10156000002B56D008F1010630461DF067F819F43B
:10157000806F00F1010738D10025474400E00136B3
:101580002046A36816F9011C9847BE42F7D1002DEA
:1015900005DD20212046A3689847013DF9D1BDE82B
:1015A000F88319F4007FDFF88480DBD089B300274B
:1015B00008F1FF3302E00137B94203D013F9012FDC
:1015C000002AF8D119F4806F0FFA89F308D0AF42DE
:1015D00006D2002BA5EB07050EDA002FD7D015E0B9
:1015E000002FDCD008F10106C6E7BD42C4D919F4CA
:1015F000004FA5EB0705C0D1002DF3DD20212046CB
:10160000A3689847013DF9D1002FC8D008F1010621
:10161000B3E719F4806FC2D0002DC0D00FFA89F95A
:10162000B9F1000FA8BF0027E8DAB2E7A426060048
:101630002DE9F04F9A4690F9003085B03A2B40F0F2
:10164000078144788C4B1D5D15F0440F37D0392C41
:1016500004F00F05847888BF09351E5D16F0440F2D
:101660002DD004F00F0606EB0516392C88BF09367D
:10167000F6B2471D00F1090E0DF10C0817E017F83E
:10168000015C392C13F8059088BF0CF1090C05F0AA
:101690000F0419F0440F07F1020704EB0C140ED0ED
:1016A000392D88BF0934BE4508F8014B0CD017F816
:1016B000024C1D5D04F00F0C15F0440FDFD16FF0EC
:1016C000020005B0BDE8F08FC479BDF80C901D5D37
:1016D00099FA99F915F0440F1FFA89F9EFD0392CCE
:1016E00004F00F05047A88BF09351F5D17F0440F19
:1016F000E5D004F00F0808EB0518392C88BF08F175
:10170000090874465FFA88F8002E00F0A4800D46A0
:101710000B308F19CDF8049018E010F801CC392C5B
:1017200013F80CB088BF09F109090CF00F041BF085
:10173000440F00F1020004EB0914C0D0BCF1390FD2
:1017400088BF093405F8014BBD4209D010F8024C9E
:1017500013F804C004F00F091CF0440FDDD1AEE70C
:10176000DDF804904D1E09EB1920304440440EEB87
:101770004604C0B2AF1915F801CF6044BD42C0B2F3
:10178000F9D125785F5D17F0440F98D06778392D2F
:1017900005F00F0CDD5D88BF0CF1090C15F0440F4E
:1017A0008DD007F00F0505EB0C15392F88BF0935D3
:1017B0002844C0B2002856D1A07810B11B5C1B078A
:1017C00054D513684B44CAF800300E9B1E60B8F124
:1017D000050F4ED8DFE808F00334271D110700205D
:1017E00005B0BDE8F08F042E3AD105200B681BBA76
:1017F000CAF8003005B0BDE8F08F022E30D10420C9
:101800000B885BBA1B041360CAF8003005B0BDE852
:10181000F08F042E24D103200B681BBACAF80030C5
:1018200005B0BDE8F08F022E1AD130460B885BBAA6
:101830009BB21B011360CAF8003005B0BDE8F08F01
:10184000002E14BF6FF00500012005B0BDE8F08F39
:101850004FF0FF3035E709EB19204044C0B290E764
:101860006FF005002DE76FF004002AE76FF003002A
:1018700027E76FF0010024E741FF06002DE9F04F54
:10188000B1B03A9C9946022CCDE90012049000F0C8
:101890004B81042C00F08180012C40F03E81002B14
:1018A00078D010AB0293C04F08ABDFF818B30393A6
:1018B0004FF0000304998DF84030002900F0FE80BD
:1018C000029C009A204600F013FC20461CF0B6FE55
:1018D00023460344B9F1100FC84628BF4FF0100843
:1018E000039E42463046019905931CF031FE059B4C
:1018F00000241D463B46DFF8D0A247460696984690
:101900000BE0284632785146013400F0F1FB102CF0
:1019100005F1030506F101060BD0A742F1D8DBF86B
:1019200000000134102C286006F1010605F10305C2
:10193000F3D14246DDE90531B8461746202203F1CE
:10194000310583F830202A4608F131061E4411F98A
:10195000013BD8B2385610F0970F08BF2E2302F87B
:10196000013B9642F3D14FF0000302998F4805F8EE
:10197000083000F0A5FBB9F1300F00F28880A9EB28
:101980000809009B43440093019B43440193B9F130
:10199000000F8DD131B0BDE8F08F03339B08F9D033
:1019A0009A464FF0000310AA0499029208AA7E4FAB
:1019B00003928DF8403000295FD0029C009A2046A7
:1019C00000F096FB20461CF039FE04EB000BBAF148
:1019D000040FD04628BF4FF00408039D019E4FEA34
:1019E0008809314628464A461CF0B2FD33464B442E
:1019F00001933B4629462E46474600245D469846BD
:101A00000591A7423CD928466949326800F070FB2D
:101A10000134042C05F1090506F10406F1D1434611
:101A200020220BF12504B8468BF824201F462246BD
:101A300009F1250505995D4411F9013BD8B23856E5
:101A400010F0970F08BF2E2302F8013BAA42F3D1F2
:101A50004FF00003029904F82830544800F030FB9E
:101A6000009BBAEB080A4B44009393D04FF000035D
:101A700004998DF8403000299FD1DDF808B0A6E721
:101A80004C4A03CA1288286069602A81C0E70F2285
:101A900003980DF121011CF085F988B1A9F1100915
:101AA000009B049910330093019B103301934FF076
:101AB00000038DF8403000297FF402AF029B09E754
:101AC000019EDDF80C80A9F1100502E01034AC4253
:101AD00006D21022414630191CF064F90028F5D0D6
:101AE000302C40F2C780049B002B00F0C580049E80
:101AF000009D304605F1100100F0E2FA2E4800F09A
:101B0000DFFA691E3046214400F0DAFA2B4800F073
:101B1000D7FAA046A9EB040933E72146284831B09B
:101B2000BDE8F04F00F0CCBA03F1010C5FEA5C0CA9
:101B30003FF430AF10AB029308AB03934FF00003B8
:101B40000499194FDFF88490CDF814C08DF8403017
:101B5000002900F08D80029C009A204600F0C8FA0F
:101B600020461CF06BFD234603440693059B039D12
:101B7000082B28BF0823019E4FEA430B3146284615
:101B80005A4698461CF0E4FC33465B440193069B9E
:101B900029462E461D463B4600244746DFF830A026
:101BA0009846079122E000BF41FF0600C07E060074
:101BB000D4260600C4490600B4260600C026060046
:101BC000DC26060040A30600AC260600C849060035
:101BD000CC260600284632885146013400F088FAA7
:101BE000082C05F1050506F102060ED0A742F1D832
:101BF000D9F80000B9F804200134082C2860AA8024
:101C000006F1020605F10505F0D1DDE9063142468F
:101C1000B8461746202203F1290483F828202246DB
:101C20000BF129051D4411F9013BD8B2385610F0CB
:101C3000970F08BF2E2302F8013BAA42F3D14FF0C1
:101C40000003029904F818300D4800F039FA009B9F
:101C50005B440093059BB3EB080305933FF49AAEF6
:101C60004FF0000304998DF8403000297FF473AFE2
:101C7000029B7AE7A94613E7024800F021FA45E7FC
:101C8000C07E0600B4260600F0B5294D4FF0000CCA
:101C9000AE46DEF80040A04204D3DEF804603444CF
:101CA000A04209D30CF1010CBCF1060F0EF1140E89
:101CB000EFD14FF0FF30F0BD0CEB8C0C55F82C60E1
:101CC0004C1E0444A64205EB8C0521D86F683E44A7
:101CD000A6421DD9AC6832EA040406D0022A14BF19
:101CE0006FF002006FF00700F0BDA1B1EA68541E6A
:101CF000044213D10C4214D19A4215D8B3FBF2F12D
:101D000002FB1133002B14BF6FF006000120F0BD61
:101D10006FF00100F0BD6FF00300F0BD6FF0040044
:101D2000F0BD6FF00500F0BD6FF00600F0BD00BF24
:101D3000C0AA060008B5FFF7A7FF0028A8BF00202B
:101D400000DB08BD08302ABF044B054953F82010BA
:101D5000044800F0B5F94FF0FF3008BDA0AA060016
:101D6000483206000027060008B50846002110F09A
:101D700045F8002008BD00BFD0E90432013B9A427B
:101D800009D20022C3681970C368591CC1605A7017
:101D90004369013343610020704700BF70B50C46B2
:101DA00091F90010B9B10546164606E02846AB6821
:101DB0000134984794F9001069B12529F6D194F9B6
:101DC0000130252B08D12846AB680234984794F996
:101DD00000100029F1D170BD0023AB8394F90130CC
:101DE000621CA3F1200110290AD8DFE801F047099D
:101DF0000942090909090909093D09380909330096
:101E00007F48D9B2415C49073DD42A2B56D1AB8BD0
:101E1000A21C43F48063AB8356F8043BEB8394F934
:101E200002302E2B4CD192F90130511CDCB2045DF2
:101E3000640700F19C802A2B00F0F1800A46682B91
:101E400002F1010440D192F901304FF0020C224618
:101E500001343EE0AB8B144643F40063BDE7AB8B2B
:101E6000144643F40043B8E7AB8B144643F4804375
:101E7000B3E7AB8B144643F48053AEE7AB8B144609
:101E800043F40053A9E7AB8B43F48063AB8392F92F
:101E90000010CBB2C35C13F004030CD0002303EB9F
:101EA000830301EB430312F9011F303BCCB2045D05
:101EB0006407F4D49BB2EB8392F900302E2BB2D09E
:101EC000682B02F10104BED06C2B00F09F804FF014
:101ED000040C4C496962C15C01F00301012905D180
:101EE000A98B41F48071A98347496962A3F1450137
:101EF0002E2919D8DFE801F070695A181818181837
:101F00001818181818181818181818181818181851
:101F10001818181818187D1870695A1818181818F1
:101F20001818181818187700423B362B1DD8DFE810
:101F300003F09F1C1C1C1C1C1C1C1C1C1C1C1C1CA3
:101F40001C1C1C1C1C1C1C1C991C1C1C1C1C1C1C54
:101F50001C1C9F1C881C1C1C1C881C1C1C1C1CAFD3
:101F6000A51C1C1C1CA11C1C9900144622E7AB8B51
:101F700043F40073AB8392F90120D3B2C35C13F036
:101F8000040300F09A80002303EB830302EB430277
:101F9000A2F1300311F9012FD4B2045D6407F3D428
:101FA0000A469BB22B8491F9003089E7AB8B073648
:101FB00026F0070643F00703AB832846F6E8022322
:101FC000C5E90023FFF728F8F4E6AB8B073626F0C7
:101FD000070643F00603EFE7AB8B073626F007064C
:101FE00043F00503E8E7284656F8041BFFF7A8FA74
:101FF000E0E62846AB6816F9041B9847DAE600BF0E
:1020000041FF06004CAB060038AB060092F90130E8
:102010006C2B0FD022464FF0040C013459E7AB8BE8
:10202000023243F40073AB8356F8043B2B8492F9DD
:10203000003045E792F9023002324FF0080C541C90
:1020400047E7AB8B43F04203AB830A23BCF1080F95
:1020500085F8223022D056F8043B28462B60FFF743
:10206000C9F8A7E6AB8B43F00303AB831023EDE77E
:102070000223EBE7AB8B43F00203E5E71022AB8BC7
:1020800085F8222023F4F74343F00403AB83E2E70F
:10209000AB8B43F00103AB830823D7E7073626F069
:1020A0000706F6E80223C5E90023AB8B284643F078
:1020B0001003AB83FFF79EF87CE60A4672E700BF89
:1020C0000FB4002300B509498DB00EAA049152F84F
:1020D000041B02A8CDE907330192FFF75FFE0798C2
:1020E0000DB05DF804EB04B0704700BF691D04003B
:1020F0000EB49FED0B7B034600B50B498CB00DAAC7
:10210000049152F8041B02A88DED067B0593019201
:10211000FFF744FE07980CB05DF804EB03B070477E
:102120000000100000000000791D04000CB4002322
:1021300030B505460C468DB0084910AA049152F8F6
:10214000041B02A8CDE9055407930192FFF726FE70
:1021500007980DB0BDE8304002B07047791D04000B
:1021600070B506460D46002406498AB068460291BD
:1021700011461A46CDE903650594FFF70FFE059851
:102180000AB070BD791D0400F8B5864691F900309B
:1021900015465B2B76460FD05DDC2A2B69D03F2B92
:1021A0007BD19EF9000098B3013191F900300EF116
:1021B000010E5B2B7646EFD191F901309EF900C0FC
:1021C0005E2B26D0212B24D05D2B50D000274C1C19
:1021D0000020002B4BD05C2B94F9012004F1010668
:1021E00024D1002A7DD094F90230D1B22D2B04F1F4
:1021F000020420D00A468C4502DB9445D8BF01205A
:102200005D2BE6D1611C0FB180F001000028CCD11C
:10221000F8BD1F4691F902308C1C5D2BD8D10331DB
:10222000C3E723B32D2394F90120661CD9B21346CA
:102230002D2B3446DED194F901205D2A46D0002AA8
:1022400044D05C2A94F902304FD183B10334DAB21E
:1022500094F90030CFE75C2B1FD191F90130002BAE
:1022600046D00231DBB29EF900209A429DD0002078
:10227000F8BD91F901303BB39EF900004C1C0028D9
:10228000C6D02A4621463046FFF77EFF0128BFD040
:1022900016F9010F0028F4D1F8BD9EF90020D5B140
:1022A0001646144CA05C00F003000228E05C08BF56
:1022B000A2F1200600F00300022808BF203B9E4246
:1022C000D5D1002A7FF470AF0120F8BD0A469445AD
:1022D000A7DB0A4691E79342C9D1002A7FF464AF95
:1022E000F2E7134634461146F1E70234D2B282E7F0
:1022F0000131B8E741FF060090F9003084461BB376
:102300005C2B00F101001FD19CF90130D3B1A3F186
:102310005802D0B22028F0B518D8202A16D8DFE805
:1023200002F01D1515154515151515292D15151531
:102330003115151515151515351515153D154115BD
:1023400039151D004FF0FF330B607047A3F13002C9
:10235000072A0CF102004AD90B60F0BD9CF902E09B
:1023600031485FFA8EF4025D12F0440322D10CF181
:102370000200F1E707230CF10200EDE708230CF15E
:102380000200E9E70C230CF10200E5E70A230CF157
:102390000200E1E70B230CF10200DDE70D230CF155
:1023A0000200D9E709230CF10200D5E75C230CF108
:1023B0000200D1E79CF903605307F7B2C55D58BF2F
:1023C0000EF00F0E05F044054CBFA4F130030EF1E2
:1023D000090335B3C25D1B01520756BF06F00F0259
:1023E000A7F1300209320CF104001344B4E79CF960
:1023F00002401346A4F13002D2B2072AACD89CF9AD
:10240000032004EBC304A2F13000C0B20728A4F1FA
:10241000300306D802EBC3020CF10400A2F1300332
:102420009AE70CF1030097E741FF0600054A03789D
:10243000D35C190704D510F8013FD35C1B07FAD40D
:10244000704700BF41FF06002DE9F04104460846F1
:1024500091F9011017461D460E4610F9018B82B006
:10246000D9B100260DE0C9B201910130B74204D9BB
:102470002146019B01F8013B0C4690F90010013602
:1024800059B1884507D05C29EDD101A9FFF734FF88
:10249000019B002BEADA90F90010414504D005B108
:1024A0002E6002B0BDE8F081B74288BF002306F17C
:1024B000010688BF2370F2E72DE9F04788460746FA
:1024C00091461E460C46DFF848A0254614F8011B2D
:1024D0001AF801C01CF0070FF7D121B130461BF0EC
:1024E00061FD0028F1D17FB1B9F1000F0CD0A5EB4F
:1024F00008044C4528BF09F1FF34224641463846BE
:102500001CF026F800233B552846BDE8F08700BFA5
:1025100041FF0600F0B5064683B001A80D460FF056
:1025200055FC6EB3184B194A1968019B14685B1A65
:10253000A0EB04021ED4164916484F6809683B44B4
:1025400083420A4408D91449A1FB0301134802EB52
:102550009142890C00FB1133C6E9002325B1104BD1
:10256000D3E90032C5E90032B4FA84F040094042B0
:1025700003B0F0BD03F57423013A03F51073DAE7F5
:10258000024B1C68EAE700BF20140020241400203E
:10259000281400203F420F0083DE1B4340420F00FF
:1025A000840700202DE9F04707460C4670B31CF065
:1025B00045F88046824600F10109D4E90B365D1EDC
:1025C0002BB1D4E9073108209847013DF9D23846AC
:1025D000216A0FF023FC56450FDDA6EB0A0A56468A
:1025E000D4E9073120209847013EF9D1D4E90731D9
:1025F00008209847BAF1010AF8D14A463946A06C3A
:102600001BF0A6FFC4E90B88BDE8F0874FF0010975
:1026100082468046004FD0E7483206002DE9F04F51
:1026200091F90030344CDAB2A25C0D46110707462E
:1026300083B005D515F9013FDAB2A25C1207F9D4CF
:1026400033B128461BF0FAFFBA88B0EB520F02DD17
:1026500003B0BDE8F08F796C121A461C013A881954
:102660001BF0CEFB32462946786C1BF071FFBA880E
:10267000531E002AECD0002002E0D054013B03D3CB
:102680007A6CD1560029F8D1B7F80480B045DFDD67
:10269000D7F844904FEA580A10E0294658461BF0F4
:1026A000CFFD38B9B24505DD3246594648461BF0E4
:1026B00079FB70B101342644B045C9DD09EB060B46
:1026C00058461BF0BBFF80450446E6DA03B0BDE880
:1026D000F08F59460190A8EB060248461BF090FB8C
:1026E000BA88786C019B921B10441946324603B09D
:1026F000BDE8F04F1BF004BC41FF060000286BD082
:10270000F8B5426A354B04469A4263D0C368002B41
:1027100060D0C369002B5DD006684F2E5AD9B6F53C
:10272000087F44D8731EA188B1F5007F03D94FF408
:1027300000721146A28001256363284684F829505F
:102740000FF014FA07463146284667640FF00EFA78
:10275000A064002F32D088B300234FF0FF371F4A08
:1027600031461F4EC4E90B3362621E48224684F88C
:1027700028506585A76306F0B5FD3368ABB94FF007
:1027800000631949194A336092F900308A69C3F32A
:10279000411C56F82C0003F01F0305FA03F3034312
:1027A0000C3146F82C30002AEED12046F8BD4FF40B
:1027B000087240F21F2316460260B4E70C48314607
:1027C00006F090FD606C08B117F040FAA06C08B1FB
:1027D00017F03CFA0020F8BD0020704711BA1FC85E
:1027E000301400200428060060AB0600E027060035
:1027F000E427060020B1003918BF012180F8291014
:10280000704700BFB8B10E4B426A10B59A420446F9
:1028100010D1C36A73B990F82A205AB1826C137030
:10282000806890F9003013B194F8293023B900235F
:1028300084F82A3010BD7047216A0FF0EFFAF6E7EE
:1028400011BA1FC840B12DE9F843426A314B07461F
:102850009A4202D0BDE8F8837047B0F80480D0F8FF
:102860002090B8F1000F4ED00026456C344608E0A9
:102870001BF0E4FE01300444444506F101023DDA58
:1028800016462B572819002BF2D1324648462249CA
:10289000013E0FF0C9FA731C14D0DFF88480BB88A6
:1028A0009E420FD27C6CFEB1002507E020461BF053
:1028B000C5FE01350130B54204440AD094F9003018
:1028C000002BF3D1386A0146BDE8F84313480FF0F6
:1028D000A5BA94F90030386A002BF4D0224641465C
:1028E0000FF0A2FA013EDAE794F90030386A002BC3
:1028F000E9D022460A490FF097FAE3E7484606492D
:102900000FF092FAC9E74846424603490FF08CFAA5
:10291000386AD8E711BA1FC8202806001C34060000
:10292000BC7E0600002900F00E812DE9F04FAB4B74
:102930004A6A0C469A4283B003D0002003B0BDE837
:10294000F08F80460846FFF75DFFD4E903309847D3
:10295000011E56DB94F82B3053B97F2931DCA04A95
:10296000481152F8202001F01F00C240D20728D59C
:102970004FF000095A1CD6B2CDF804804F468B4662
:10298000B0462344974D984884F82B6004F13C0AE4
:1029900083F83C106E68464508DB424651461BF002
:1029A00001FA18B9464509F1010930D055F80C0F64
:1029B00001370028EED15946B9F1000FBDD184F896
:1029C0002B90E36A626B9342B7D2256BAA42B4D9CB
:1029D000A26CAB424EB203F1010002EB030100F026
:1029E000B48094F82870002F40F0AF80E062D65495
:1029F00094F82930002BA0D0D4E90731304698470D
:102A00009BE76369002B98D0A069984795E7754BC1
:102A100007EB470703EB8709D9F808305946DDF87B
:102A20000480834684F82B00002BCAD0B3F5837F43
:102A300083DAB3F5807F72DDA3F58173032B00F297
:102A4000C981DFE803F025150264A66CE56A30460B
:102A50001BF0F4FD8542BFF470AF94F8293023B128
:102A6000D4E9073170579847E56A0135E56264E7B4
:102A7000E36A002B3FF461AF94F82920013BE36245
:102A8000002A3FF45AAF216A58480FF0C7F954E7BB
:102A9000D4F83890B9F1000F40F3E280B4F804A004
:102AA00009F1FF38D045C4F8388080F08681676C22
:102AB0003D4697F90030B8F1000F00F0088100267C
:102AC00008E028461BF0BAFD01360130B045054448
:102AD00000F0FB8095F90030002BF2D1D145C4F80D
:102AE00038900AD30DE038461BF0A8FD0BF1010B1E
:102AF000431CCB451F4400F0508197F90030002B58
:102B0000F1D1002521462846FFF74CFD15E794F842
:102B10002830B3FA83F35B0984F828300DE7082BDB
:102B200066D00D2B37D0032B7FF407AF94F82930F4
:102B3000002B40F0D080294B626A9A4200F0D0808E
:102B40004FF0FF30FAE60020704710446A1CD21A9A
:102B50001BF056F9E36AA26CD65494F82910D4E914
:102B60000B230133501CC4E90B0300293FF4E5AEED
:102B7000A06C216A10440FF051F9D4E90B239B1A81
:102B80005D1E002B3FF4D9AED4E9073108209847E9
:102B9000013DF9D2D1E694F829301BB1D4E90731CF
:102BA0000A2098470021236BA26CD154D4F8489096
:102BB00099F90030212B58D049462046FFF72EFDC9
:102BC0000023616BA06C054A4354A16CC8F8001047
:102BD000616A914200F0AA800120AFE611BA1FC8D5
:102BE0003014002060AB06003028060034280600B0
:102BF000E16A00293FF4A1AE236B002B3FF49DAEA8
:102C0000A06C01334D1E5A1A014428441BF0F8F8F9
:102C1000D4E90B2394F82910013A013BC4E90B23B2
:102C200000293FF48AAED4E9073108209847E36AC7
:102C3000A06C216A18440FF0F1F8D4E90731202084
:102C40009847D4E90B2301339B1A5D1E002B3FF4F8
:102C500074AED4E9073108209847013DF9D26CE6FB
:102C60004FF0FF337C4DA3634CE799F80020B4F894
:102C700004A0213A05D199F80120213A08BF99F81A
:102C80000220BAF1000F1CD000272346656C3E4697
:102C90003C4601922F461D4607E01BF0CFFC431C2B
:102CA0001E44B24504F101044ADDBB57B819002B9C
:102CB000F3D12B46019A3D4627461C46002A73D184
:102CC000F7B9002389F800307AE795F90030002B36
:102CD0007FF418AF02E7216A60480FF09FF82AE7F7
:102CE000012300224FF0FF31C4E90B2284F8283081
:102CF000A163638524E7A2465C465546DDF804805F
:102D0000002DDED028461BF099FC626B29469042CC
:102D1000B8BF421C48461BF01BFC0021A26C636B31
:102D20002046D154A16CFFF779FC49E701224FF00E
:102D3000FF31C4E90B3384F82820A16362854BE797
:102D40002B46019A3D4627461C46002AD8D009F159
:102D5000010630461BF072FC02464FF0000ACDF827
:102D60000480D846A3465446924608E028461BF005
:102D700065FC421C154408F10108B845BBD095F923
:102D80000020002AB7D0FCB95246314628460EF042
:102D900023FF0028EAD12C46EDE797F90030002BFD
:102DA0003FF4AFAE3D46ADE609F1010630461BF0FB
:102DB00045FC0246002FD0D183E7D145C4F83890B6
:102DC000BFF49FAE676C98E6A246DDF804805C46CF
:102DD000554697E7A66BB4F80490771C4F45A76358
:102DE00014D24FF00008656C67B395F900306BB1F1
:102DF00028461BF023FC08F10108431CB8451D447C
:102E0000F3D195F90030002B7FF47CAE4E45A663DC
:102E1000BFF477AE656C95F900307EB195F900305E
:102E2000002B3FF46EAE28461BF008FC0BF1010BA3
:102E3000431C5E451D44F1D195F90030002B7FF411
:102E400061AE5EE695F90030002B7FF45BAE4FF08B
:102E5000FF33A36355E600BF48320600382806005A
:102E600030F8063C10B5502B044600F04B81603B17
:102E70009AB2822A00F28880822B00F28580DFE8F5
:102E800013F092008300830083008300830083009B
:102E9000830083008300830083008300830083001A
:102EA00083009F00830083008300830083008300EE
:102EB00083008300830083008300830083008300FA
:102EC0008300A600830083008300830083008300C7
:102ED00083008300830083008300830083008300DA
:102EE0008300AD00830083008300830083008300A0
:102EF00083008300830083008300830083008300BA
:102F00008300B400C100830083008300830083003A
:102F10008300830083008300830083008300830099
:102F20008300CE00DB00E200EF008300830083001B
:102F30008300830083008300830083008300830079
:102F40008300F60006018300830083008300830072
:102F50008300830083008300830083008300830059
:102F60008300160120018300830083008300830017
:102F70008300830083008300830083008300830039
:102F800083002A0138018500002010BDD0E900230C
:102F900050E9040119F032FA012144E904230846FA
:102FA00024F8081C10BD50E9042352EA0301F3D0B1
:102FB000D4E9002100230A4314BF01221A46EBE79B
:102FC00050E90423D0E9000102430B43E4E750E950
:102FD0000423D0E9000142404B40DDE750E90423DF
:102FE000D0E9000102400B40D6E750E90402D4E9E1
:102FF00000139A4208BF88424FF000030CBF012221
:103000001A46C9E750E90421D0E90003994208BFF4
:1030100082424FF0000314BF01220022BCE750F8A7
:10302000100C216854F80C3C62688842934134BF0C
:10303000012200220023AFE750F8101C54F80C2C9A
:1030400000686368F1E750F8101C54F80C2C006815
:103050006368884293412CBF0122002200239BE732
:1030600050F8100C216854F80C3C6268F1E70168D4
:1030700050E90423C1F1200003FA00F0CA400243E2
:10308000A1F1200023FA00F00243CB4084E701685D
:1030900050E90423A1F1200002FA00F08B40034321
:1030A000C1F1200022FA00F003438A4074E750F88F
:1030B000102C016850F80C3C4068521843EB000398
:1030C0006AE750F8102C016850F80C3C4068521A1E
:1030D00063EB000360E750F8103CD0E9002103FBEC
:1030E00001F150F80C0C02FB0011A3FB02230B446E
:1030F00052E7D0E9002350E9040119F07FF90246B4
:103100000B4649E750E9043213433FF451AF012223
:10311000002341E708B590F9003023B94FF0FF31A3
:1031200003481BF083F801460248FEF7C9FFF5E7A4
:1031300070170020002706000A2A2DE9F04F934659
:1031400014BF012202220A8190F900C0DFF83491F5
:103150005FFA8CF219F902200B4612F04406804601
:1031600083B000F088804FEAEB7A0026134652467F
:103170003746DA46019193461EE006FB0BF5A6FBA7
:103180000A410AFB075504190D4445EB0305524655
:103190005B462046294619F031F9B94208BFB042D2
:1031A0006BD118F901CF5FFA8CF319F9033013F0E2
:1031B000440F28D026462F4613F0030F4FF000038C
:1031C0000CF00F0018BF0930504573EB0B01D4D33E
:1031D000019BC3E9006798F90020D2B219F80210E8
:1031E00001F00301022929D0552A29D04C2A0ED0FA
:1031F0001FB9404603B0BDE8F08F1A89012A2FD1CC
:1032000008221A81F5E726462F46019BE1E70222B4
:103210001A8198F90120D2B219F8021001F00301C5
:10322000022908BF203A4C2A1ED008F10100002FC5
:10323000E0D004221A8103B0BDE8F08F752A0DD1C9
:1032400001221A8108EB020098F901208046D2B2CF
:1032500019F8021001F003010229C7D1203AC5E78D
:10326000022AC6D14046E4E7042208F102001A818E
:1032700003B0BDE8F08F3746ABE70148FFF74AFFE0
:103280006828060041FF0600038910B5402B48D08E
:10329000102B044611D0013B012B0DD82D2938D01D
:1032A00022DC21292BD02A2906D101230268D2E968
:1032B0000001C4E90001238110BD212908D02D2976
:1032C00032D1D0E9002101F10043C0E9002310BD53
:1032D0000022D0E90001002318F052FE002260B164
:1032E000134BC4E9002310BD7E29E5D1D0E90023AA
:1032F000D243DB43C0E9002310BD0023F1E70022E5
:10330000D0E900310B430CBF01231346C0E9003262
:1033100010BDD0E900325B4262EB4202C0E90032EC
:1033200010BD0448FFF7F6FE0348FFF7F3FE00BFA9
:103330000000F03F78280600882806002DE9F047B5
:1033400082B00F46FFF772F890F900600446282E0D
:103350004ED02D2E13D02EB13146A7481AF022FEA2
:1033600000285ED03946601CFFF7E8FF314605466D
:103370003846FFF789FF284602B0BDE8F08790F98C
:103380000130DFF89482DBB218F80320910745D0B2
:103390009A4B1B68002BE5D1DFF88092984ED9F844
:1033A0000000326804F1010A964B3860013A514638
:1033B0000130FFF781F890F900200546D3B218F8E4
:1033C000033013F0080302D1002A40F0EA802D23D5
:1033D000D9F80040237020461BF030F940233B8190
:1033E0003368033004441B1AC9F800403360C2E755
:1033F000824E3946336801AA01330130336000F050
:103400000FF990F90030292B40F0EA80451C28463E
:103410003368013B336002B0BDE8F0875F2BA1D178
:10342000B6E7222E22D1DFF8F481754ED8F80000DD
:1034300001AB214632683860FFF706F890F900309A
:10344000222B40F0D080D8F80040451C20461BF0CD
:10345000F5F880233B813368013004441B1A284669
:10346000C8F80040336002B0BDE8F0872046FEF7A0
:10347000DDFF90F900100646272976D02E2900F0AE
:103480008680DFF894815FFA81FC18F90C0043070D
:1034900026D5354615F9014FE3B218F8032012F08E
:1034A000040FF7D12E2C06D002F00302022A08BF27
:1034B000203B452B14D1304601A91AF031F9019D6A
:1034C00087ED000BAE4200F0948095F90030DBB23E
:1034D00018F803305A0740F08C8010233B814AE7EC
:1034E000830723D1BCF15F0F20D0A1F13103DBB200
:1034F000082B63D930297CD196F90130DBB218F85A
:10350000032002F00302022A08BF203B582B57D0A9
:10351000422B03D1B378303B012B5DD908223946C9
:10352000304602B0BDE8F047FFF706BEDFF8EC908A
:10353000DFF8CC80D9F80000324B3146D8F80020B3
:103540003860FEF7B9FFD9F80040054620461BF069
:1035500075F840233B81D8F80030013004441B1A31
:10356000C9F80040C8F8003005E701A90130FEF7AE
:10357000C3FE019B002B39DB90F90020272A35D1AF
:103580000122D917C7E9003185183A81F3E690F98D
:103590000130DFF88480DBB218F803305A078AD490
:1035A00071E739463B60504694F90040FFF7C6FE8C
:1035B000214605463846FFF767FEDCE60A22AEE7FD
:1035C00096F90230DBB218F8033013F0440FA5D09F
:1035D00010223946B01CA4E702223946B018A0E7F1
:1035E0000948FFF797FD0948FFF794FD0848FFF7E2
:1035F00091FD0848FFF78EFDB82806006C170020E3
:1036000040140020B4280600A0280600C0280600A8
:10361000D8280600E828060041FF060044140020D0
:103620002DE9F04F2DED028B85B08B461746FEF746
:10363000FDFE90F900308146002B00F06783233BAC
:10364000DAB2182A21D8182B1FD8DFE813F05F034D
:103650001E001E001E001E001E001E001E001E007A
:103660005F031E001E0019001E001E001E001E002B
:103670001E001E001E001E001E001E001E005F0316
:1036800090F901302F2B00F041834B4BABEB030340
:10369000F02B00F384815C469FED458BCDE90297CA
:1036A0000298FEF7C3FE2146FFF748FE434B1A6817
:1036B00003463AB990F900204149D2B28A5C120718
:1036C00000F1F0821846FEF7B1FE90F900302F2B82
:1036D00000F0C48200F3F482002B00F0F482232B6C
:1036E00000F0F182421C213B02925B2B6FD8DFE895
:1036F00013F068036E006E006E00650359036E00E0
:103700006E006E00560350034D0353036E00BB0260
:103710006E006E006E006E006E006E006E006E0039
:103720006E006E006E006E003F03690031036E0094
:103730006E006E006E006E006E006E006E006E0019
:103740006E006E006E006E006E006E006E006E0009
:103750006E006E006E006E006E006E006E006E00F9
:103760006E006E006E006E006E006E002E036E0026
:103770006E006E006E006E006E006E006E006E00D9
:103780006E006E006E006E006E006E006E006E00C9
:103790006E006E006E006E006E006E006E006E00B9
:1037A0006E006E006E006E00220300BFAFF300805B
:1037B000000000000000F03F681600206C17002099
:1037C00041FF060090F901303D2B00F004830023F7
:1037D000002563810290A34580F0D88010275E46C3
:1037E00005F0F00A34F806BC0BF0F002924500F246
:1037F0004882BBF1100F00F0C58034F8082C402A35
:1038000000F0EE822189402900F0EA82802A00F04F
:10381000E782802900F0E482022A00F02E81102A3B
:1038200000F03681102940F01F81012A40F05381B9
:1038300054E9040118F006F9CDE90001D4E9008942
:10384000BBF1500F00F03481ABF160039AB2822AD1
:1038500000F29880822B00F29580DFE813F0F100EF
:1038600093009300930093009300930093009300C0
:103870009300930093009300930093009300CE0273
:1038800093009300930093009300930093009300A0
:103890009300930093009300930093009300CE0253
:1038A0009300930093009300930093009300930080
:1038B0009300930093009300930093009300CE0233
:1038C0009300930093009300930093009300930060
:1038D0009300930093009300930093009300E800FB
:1038E000DF009300930093009300930093009300F4
:1038F0009300930093009300930093009300D600ED
:10390000CD00C200B8009300930093009300930091
:103910009300930093009300930093009300CE02D2
:10392000CE029300930093009300930093009300C2
:103930009300930093009300930093009300B100D1
:10394000AA009300930093009300930093009300C8
:103950009300930093009300930093009300A300BF
:103960008300CE024246DDE900014B4618F0CAF959
:1039700044E9040124F8087C24F8065C103CA642C3
:10398000FFF430AF122DB34600F07F81002D00F020
:103990007C81A24B1034E31AF02B7FF781AEA04854
:1039A000FFF7B8FB4246DDE900014B4618F080F80E
:1039B000DEE74246DDE900014B4617F0C1FED7E7DE
:1039C0004246DDE900014B4617F0BCFED0E7424617
:1039D000DDE900014B4618F0F1FA50B151EC180B3B
:1039E000C6E74246DDE900014B4618F0DDFA002843
:1039F000F4D100200021BBE74246DDE900014B463F
:103A000018F0E6FA0028E9D1F3E74246DDE90001C3
:103A10004B4618F0BFFA0028E0D1EAE74246DDE95C
:103A200000014B4618F0ACFA0028D7D0E1E7424637
:103A3000DDE900014B4618F0A3FA0028CED1D8E703
:103A40000022DDE90001002318F09AFA0028D0D105
:103A5000404649460022002318F092FAB0FA80F05E
:103A6000400917F0BBFF83E72046FFF7F9F900286C
:103A700082D1122DB34689D107E1022930D0102915
:103A8000F2D154E9040117F0E5FFCDE90001D5E6D4
:103A900014ED047B01298DED007B12D1D4E90001E6
:103AA00017F0D0FFBBF1500F804689467FF4CCAEB3
:103AB0000022DDE90001002318F062FA00288DD011
:103AC000C6E702297FF4BAAED4E9000117F0C2FFBD
:103AD00080468946B4E614ED047B8DED007BADE6AF
:103AE000ABF1B003322B1BD8DFE803F0B09C907C25
:103AF0001A1A1A1A1A1A1A1A1A1A1A1A644F1A1AA7
:103B00001A1A1A1A1A1A1A1A1A1A1A1A1A1A1A1A15
:103B10001A1A1A1A1A1A1A1A1A1A1A1A3C302400DD
:103B20002046FFF79DF900283FF42CAF022324F82C
:103B3000083C21E754E90401D4E9002318F00EFC05
:103B400044E90423022324F8083C15E7D4E90023C0
:103B500054E9040118F002FC022344E9040124F8AA
:103B6000083C09E754F8102C636854F80C0C02FB6D
:103B700003F3216801FB0033A2FB01210B4444E95C
:103B80000423022324F8083CF6E6216854E90423C0
:103B9000A1F1200002FA00F08B400343C1F12000A4
:103BA00022FA00F003438A4044E90423022324F864
:103BB000083CE1E6226854F80C1C54F8103CC2F1B1
:103BC000200001FA00F0D3400343B2F120005CBFB3
:103BD00041FA00F00343114144E90431022324F87F
:103BE000083CC9E654F8102C23689A4254F80C3C5F
:103BF00062689341ACBF0123002344F8103C0023CA
:103C000044F80C3C022324F8083CB5E654F8103C78
:103C100022689A4254F80C2C6368EAE76816002080
:103C2000F028060054F8103C22689A4254F80C2CF4
:103C300063689341B4BF0123002344F8103C002380
:103C400044F80C3C022324F8083C95E654F8102C68
:103C500023689A4254F80C3C6268EAE790F9013014
:103C60002F2B30D0431C0293E125658190F9013060
:103C70002F2B7FF4B0AD1225A345658127D202908A
:103C8000ACE5122DB3467FF484AEDDE90297A4EBD8
:103C90000B031B1101333B60484605B0BDEC028BA2
:103CA000BDE8F08FFEF7C2FB0290FEF7BFFB90F974
:103CB00000307BB91225A3456581FFF48FADE4E7A1
:103CC0003B2B7FF40FAD1225A3456581D7D38146E9
:103CD000039FDCE7029D2846FEF7A8FB90F9003021
:103CE000232BE7D02846FEF7A1FB90F900303B2BB1
:103CF000E0D02846FEF79AFB90F900302F2B7FD0BA
:103D00001025A3456581FFF469AD42E6002000213E
:103D10000023CBE90001ABF808303B6099F9003093
:103D2000002BB9D0232BB7D03B2BB5D02F2B70D085
:103D300009F10109B0E77025658190F901307C2B0C
:103D40007FF449AD5025831C0293658143E58025AE
:103D5000658140E5B125658190F901303E2B47D062
:103D60003D2B7FF438ADB325831C0293658132E58A
:103D7000B025658190F901303C2B34D03D2B7FF488
:103D80002AADB225831C0293658124E51025658147
:103D900021E5D02565811EE5D12565811BE5E0255E
:103DA000658118E59025658190F90130262B7FF417
:103DB00012AD6025831C029365810CE5E2256581C7
:103DC00009E590F901303D2B7FF401ADA125831C5D
:103DD00002936581FFE4A025831C02936581FAE4C8
:103DE0000E48FFF797F9C125831C02936581F2E421
:103DF000C025831C02936581EDE40948FFF78AF929
:103E00000298FEF713FB90F901302F2B7FF478AF67
:103E100050E799F901302F2B8AD13DE70829060098
:103E20001829060010B50446FEF700FB90F9003093
:103E30000BB9012010BD2046FEF7F8FA90F90030CA
:103E4000232BF6D02046FEF7F1FA90F900303B2BF9
:103E5000EFD02046FEF7EAFA90F900302F2B01D080
:103E6000002010BD2046FEF7E1FA90F90100A0F114
:103E70002F00B0FA80F0400910BD00BF30B500251A
:103E80000446174885B005601648CDE90041CDE9E4
:103E900002231AF0C3F9B8B94FF40872124B134950
:103EA000134C1960134B00981A6013492246FFF710
:103EB000B7FB2368019A1360029A93420DD3039AC9
:103EC000934207D805B030BD00231846084A136056
:103ED00005B030BD0948FFF71DF90948FFF71AF989
:103EE0006C17002070170020441400204814002094
:103EF0006817002040140020681600204C29060096
:103F000034290600494B1B68834240F28C80484BA1
:103F100010B50C46010103EB0010B0F808C01CEA14
:103F2000020F16D1042A3BD0082A45D0BCF1100F4D
:103F30002CD0102A5DD0202A3BD1BCF1020F65D0D5
:103F4000BCF1010F35D1D0E9000118F0C1F92060B2
:103F50000AE012F0030F09D112F00C0F09D00B4444
:103F6000D3E90023C4E90023002010BD5B5823607F
:103F7000FAE712F0C00FF9D1D10635D4930618D55F
:103F8000D0E9000118F08CF82060EDE7022A20D07B
:103F9000012A0ED1D0E9000118F062F82060E3E7B1
:103FA000BCF1020F10D0BCF1010FD8D0BCF1080F4A
:103FB000D5D06FF0010010BD0CF1FF32012ACED92F
:103FC000BCF1040FCBD0F4E7D0E90023C4E900230F
:103FD000CAE7D0E9000118F063F807EE900AFDEE99
:103FE000E77AC4ED007ABFE7D0E90023C4E90023F3
:103FF000BAE7BCF1020F0FD0BCF1010FD9D1D0E963
:10400000000117F01FFDC4E90001ADE7D0E9000190
:1040100018F066F92060A7E7D0E9000117F01AFD53
:10402000C4E90001A0E74FF0FF3070476817002097
:10403000681600200D4B1B6898420BD20C4B4FEAC0
:10404000001C03EB00100089800703D053F80C30EC
:104050000B60704700B595B006496846FEF748F812
:10406000684600F0DBFA15B05DF804FB6817002025
:104070006816002060290600F0B5144C0D4626682D
:104080001F46B042144695B016D2114A010102EB08
:10409000001003899B070FD052582A60944201DC1C
:1040A000974207DA68461A9A0A49FEF721F86846E5
:1040B00000F0B4FA15B0F0BD1A9A07496846FEF749
:1040C00017F8684600F0AAFA2A68E7E768170020A0
:1040D000681600206C29060060290600F0B5144C13
:1040E000154626681F46B0420C4695B017D2114AB5
:1040F000010102EB001003899B0710D05358236085
:104100002268AA4201D3BA4207D968461A9A0A49D4
:10411000FDF7EEFF684600F081FA15B0F0BD684685
:104120001A9A0649FDF7E4FF684600F077FAE7E7D8
:1041300068170020681600206C2906006029060018
:10414000044B1B68834283BF034B03EB00131889A6
:1041500000207047681700206816002008B50B4B38
:104160001B6883420FD90A4B020103EB0010008940
:1041700010F0400000D108BD98580DF009FDB0FACC
:1041800080F0400908BD002008BD00BF681700206E
:10419000681600202DE9F041DFF86C8094B0D8F863
:1041A0000030984208D2164D044605EB00131B89D7
:1041B00016460201580603D4002014B0BDE8F08171
:1041C000A8580F460DF0E4FC0028F5D1D8F80030CF
:1041D00001349C4205D2220105EB041423899B077C
:1041E0000BD13A4668460749FDF782FF684600F062
:1041F00015FA012014B0BDE8F081AB583360F8E740
:1042000068160020602906006817002070B594B079
:104210000E461C461546FFF7BDFF30B12B68A34282
:1042200005D3189A934202D8012014B070BD3246CB
:1042300068460349FDF75CFF684600F0EFF9F3E7D5
:104240006C29060070B50E4E3468844215D90D4DA8
:10425000030103F11001C0F10F021201E818294413
:1042600019F0CEFD0023C5E93D33013CC5F8F0301F
:10427000C5F8FC301846346070BD4FF0FF3070BD9B
:104280006817002068160020F8B50E4E3368BBB1E1
:10429000074600250C4C05E033680135AB4204F1BC
:1042A00010040DD923895B06F6D5394620680DF038
:1042B0006FFC0028F0D12846FFF7C4FF0120F8BDAD
:1042C0000020F8BD6817002068160020F0B583B004
:1042D0000C46154601A9C022FFF714FE68B92168F3
:1042E0000746019E49B1304665B919F0A9FF30B1C2
:1042F00054F8041F01370029F5D14FF0FF37384635
:1043000003B0F0BD0DF044FCF1E700BF2DE9F04F24
:104310000C4683B0814616462046C02201A99A4623
:104320000C9FFFF7EFFD002846D131688046019DC4
:1043300069B134468346284627BB19F081FF28B36C
:1043400054F8041F0BF1010B0029F4D1019D95F9DC
:1043500000302D2B10D195F901306BB1316801354A
:1043600051B100242846BFB919F06AFFC0B156F810
:10437000041F01340029F5D16FF00108404603B055
:10438000BDE8F08F0DF004FC0028D9D15AF82B308D
:10439000D9F80020134309E00DF0FAFB0028E6D11C
:1043A0005AF82420D9F8003023EA0203C9F8003073
:1043B000404603B0BDE8F08F4FF0FF38F8E700BF8C
:1043C000002330B583B00C46C02201A901930546F5
:1043D000FFF798FD431C1ED0C0B901990F48FDF7A7
:1043E0006FFE0F48FDF76CFE216861B10D4D54F86A
:1043F000043F2846002B0CBF0A222C22FDF760FE4A
:1044000021680029F3D1084803B030BD2946074888
:10441000FDF756FEE5E7064803B030BDC0290600AB
:10442000E0290600F829060094290600A8290600BC
:104430007C2906002DE9F04389B0FDF7F7FF064619
:10444000FFF7F0FC20B32B4F2B4A2C492C48FDF7EB
:1044500037FE3B68002B14DD00242546DFF8AC90C6
:10446000DFF8B480D9F800301A1912691AB1404641
:104470001959FDF725FE3B680135AB4204F11404E0
:10448000F0DC2048FDF71CFE304609B0BDE8F083A3
:1044900031461D4B044620226846FEF70DF8154BA9
:1044A00006461F68002F13DD184B07EB8707D3F86C
:1044B0000080454608E069460DF06AFB053460B1AE
:1044C000BC4205F1140503D058F824000028F2D1AD
:1044D0000F48FDF7F5FD0026D6E7EB682BB16846DF
:1044E0009847304609B0BDE8F08369460948FDF7B2
:1044F000E7FDF0E7B41800203CF506005CF5060087
:10450000002A06001C340600B4280600B818002053
:10451000342A0600482A0600202A060010B5044660
:10452000024B1868FEF78EF9204610BD6C2D002056
:104530002DE9F04FDFF8E0B085B0DBF800A00E9C6D
:10454000BAF1000F0F46064699463149029401928E
:1045500016DD00240A68A0460D461446039208E0C2
:1045600031460DF015FB143430B308F10108D04585
:1045700002D020680028F3D1BAF17F0F29462ADC47
:104580000B6800259846039309E031460DF000FBC7
:10459000002809DC0135802D04F1140834D0D8F846
:1045A000000044460028F0D15545039B1ADB0AF170
:1045B0000103CBF8003004E0039A08EB880402EB17
:1045C0008404019B2660C4E90139029B2761E360F2
:1045D00005B0BDE8F08F31460E4805B0BDE8F04F9C
:1045E000FDF76EBDAAEB0502013502EB820205EB79
:1045F000850503EB85004146920019F001FC0AF1A4
:104600000103CBF80030DCE7039B03F52064CEE721
:10461000B8180020642A0600B418002008B518B1A4
:1046200001460448FDF74CFD4FF0FF31024819F0F8
:10463000FDFD00BF002706001018002003462DE9ED
:10464000F04734488AB0019319F0E8FD002835D1CD
:104650000746DFF8D4A0DFF8D490DFF8D4800198C3
:10466000FDF7E4FE90F9003004463A2B4BD03F2B87
:1046700041D001465346202202A8FDF71DFF0190BC
:10468000D8F80060002E0FDD234B3D461C6808E083
:1046900002A90DF07DFA0135B0B1B54204F1140460
:1046A00002D020680028F3D11C4802A904F06EFE55
:1046B0001B48FDF705FD00221A4B1A604FF0FF372B
:1046C00038460AB0BDE8F087A268164B01986468C6
:1046D0001A60FDF7ABFEA0470028F1D090F900303A
:1046E000002BEDD0FDF7A2FE90F900303B2BE7D177
:1046F000431C0193B3E7631C99E80300CDE9013043
:104700008DF80C10BCE70EF0BDFF38460AB0BDE8CE
:10471000F08700BF10180020B8180020802A06007B
:10472000982A0600B0180020B4280600E42A0600E3
:10473000B418002008B5054B1B6833B1044819F0C4
:104740006DFD10B9014B1B68984708BDB0180020DB
:104750001018002030B50E4C83B0236893B10024AC
:104760000C4D234600940C4A0C490D482C60FFF771
:10477000DFFE23460B4A0C490C480094FFF7D8FE95
:1047800003B030BD142180200DF0F0F92060E6E781
:10479000B8180020B418002035440400CC2A0600C4
:1047A000E42A06001D450400EC2A0600042B06003E
:1047B000704700BF0148FDF783BC00BF0C2B06000B
:1047C00010B504462048FDF77BFC2048FDF778FC37
:1047D0001F48FDF775FC1F48FDF772FC1E48FDF7EA
:1047E0006FFC1E48FDF76CFC204604F083FA1C4861
:1047F000FDF766FC1B48FDF763FC1B48FDF760FCFA
:104800001A48FDF75DFC1A48FDF75AFC1948FDF7F8
:1048100057FC1948FDF754FC184B1B6803B110BD39
:104820001748FDF74DFC1748FDF74AFC1648FDF701
:1048300047FC1648FDF744FC1548FDF741FCBDE870
:1048400010401448FDF73CBCF02B0600BC2C0600C1
:10485000D42C06004C2D06005C2E0600342F0600DA
:104860001C3406006C2F06001C3006006830060061
:10487000F8300600703106001C3206008C0700205C
:104880004C32060080320600C03206002833060093
:104890006833060020340600F0B50C461F4B87B085
:1048A000151E0CBF4122422203EB0111064602A84D
:1048B000FDF71EFC1A4802A9FDF702FC2CB1012CE1
:1048C00024D00E2C14D107B0F0BD306817F098F842
:1048D0000D460446706817F093F806460F462246C8
:1048E0002B46CDE900670F48FDF7EAFB07B0F0BDA6
:1048F00005EB4502023C04EB820406EB84063069BA
:1049000017F07EF804460D46306FE4E7B06817F004
:1049100077F804460D46F068DDE700BF34AC0600CA
:104920004C35060058350600F8B50E4605461A48BF
:10493000FDF7C6FB731C4FF0000410D0174F214643
:1049400032462846FFF7A8FF01343846FDF7B8FB8A
:104950000E2CF4D11148BDE8F840FDF7B1BB104F63
:104960000E4E0DE03846FDF7ABFB214601222846EE
:10497000FFF792FF01343046FDF7A2FB0E2CE9D081
:10498000002221462846FFF787FF012CEAD830464F
:10499000FDF796FB0134F3E7683506001C3406008A
:1049A000C84906002DE9F04182B00C4601A906462F
:1049B000154605F047FF002871D105EB8505DFF8A6
:1049C000F4816A4F04EB850505E03846FDF778FB76
:1049D0001434AC4227D0237B2168002BF5D040460D
:1049E000FDF76EFB6189B4F808C04B1E13EA0C0F8B
:1049F00006EB0C0205D1012933D0022966D0042927
:104A00006DD0BCF1520F5AD010D9BCF1780F1CD028
:104A1000BCF17C0F4AD1002319465548143404F0E8
:104A2000D1F8AC42D7D102B0BDE8F081BCF1280F7B
:104A300011D0BCF1340F39D1106816F0E1FF0246F5
:104A40000B464C48FDF73CFBC2E70023194648489B
:104A500004F040FABCE7002347481946FDF730FB55
:104A6000B6E716F80C30BCF1520F34D008D8BCF1C0
:104A7000280F37D14148404A002B08BF1046ECE7C9
:104A8000BCF1780FE2D0BCF17C0FC5D0207B01389F
:104A9000052846D8DFE800F02A5240453A4D0199F2
:104AA0003748FDF70DFB02B0BDE8F081237B013BE9
:104AB000052B36D8DFE803F01A392F3529200023DB
:104AC0002B4A19462F48FDF7FBFA81E7BCF1520F3C
:104AD00036F80C30CAD12C4A52F82320F1E756F8A8
:104AE0000C30C0E7BCF1340FA6D0CFE701F01F01B6
:104AF0002648FDF7E5FA6BE70023254A52F8232004
:104B000019462448FDF7DCFA62E7002319B222486F
:104B1000FDF7D6FA5CE7002319462048FDF7D0FAE6
:104B200056E71F48FDF7CCFA52E71348FDF7C8FADD
:104B30004EE7032BE1D900231A4AE1E7002BF4D01A
:104B40004FF0640C18481949A1FB0321A0FB03E2B4
:104B50005209A0FB02E040090CFB1233490B0CFB8D
:104B600010221348FDF7ACFA32E700BFC07E060002
:104B700048320600AC3506001C3406008C350600B1
:104B8000F4350600B435060024AC0600BC3506003A
:104B900014AC0600E0350600D8350600D435060012
:104BA000EC350600943506001F85EB515917B7D137
:104BB000C43506009C3506002DE9F04F2DED028B23
:104BC000DFB00A23002201A9FFF758F905460028A3
:104BD00000F0CE8005F076FE019B53B94FF0FF3117
:104BE0009348FFF7A1FE28465FB0BDEC028BBDE8FD
:104BF000F08F00208F49FFF7B1FA002800F0BB804A
:104C0000019B0026012B00F0BF8001208A49FFF79D
:104C1000A5FA40B98948FFF701FD28465FB0BDEC11
:104C2000028BBDE8F08F0DF10C0A4FF4B6725046BE
:104C3000834919F08DFCC6F1000909F0300909F12A
:104C4000A009804CD1444F460025DFF8248232462B
:104C5000294629A8FFF720FE4046FDF731FA202219
:104C6000002079490DF018F900281CDB1ED1774887
:104C7000FDF7DCFB90F90030002B32D0FDF7D6FBBE
:104C800002A9834618F05AFD0298B0EE408A834587
:104C900005D0FDF7CBFB90F900302C2B4ED06C48A3
:104CA000FDF70EFAD3E76B48FFF7B8FC664A02F14E
:104CB000200C0AE0215C01F00301022904BF203826
:104CC00043B2944502F8013C04D012F9013BD8B23A
:104CD000002BEFD15C48FDF7A9FB90F90030002BC9
:104CE000CCD101350E2D07F10407B0D14FF4B672C7
:104CF0005146534819F056F8002800F09480564861
:104D0000FDF7DEF90025554F2946324629A8FFF761
:104D1000C3FD01353846FDF7D3F90E2DF4D14F48C8
:104D2000FDF7CEF9504603F043FF45288BD0002510
:104D300028465FB0BDEC028BBDE8F08F0130FDF777
:104D400075FB02A9834618F0F9FC0298F0EE408A40
:104D50008345A4D0FDF76AFB90F90030002B9ED16B
:104D60006DB3012D58D087ED008AC7ED188AB8E7DA
:104D7000FFF754FC2EE73A49FFF7F0F930B3019BF7
:104D80000126012B7FF441AF3348FDF799F9002448
:104D9000DFF89C80314F214632464046FFF77CFDCC
:104DA00001343846FDF78CF90E2CF4D12B48FDF771
:104DB00087F928465FB0BDEC028BBDE8F08F8AED25
:104DC000268ACAED278A0125043740E72549FFF7DF
:104DD000C5F918B92448FFF721FC11E70DF10C0AB9
:104DE0004FF4B6725046164919F0B2FB144C5046B7
:104DF00005F018FB4FF4B6725146204618F0D2FF6A
:104E000088B14FF0FF3129A8FFF78EFD504603F01F
:104E1000CFFE45288BD1EAE78AED288ACAED298A98
:104E20000225043713E71148FDF74AF97FE700BF71
:104E3000881D0020C4900600443606008C3606000B
:104E4000F01C002041FF0600C01800204832060078
:104E50006836060054360600683506001C34060025
:104E6000EC93060014360600283606001C360600B1
:104E70004C360600014608B50348FDF721F94FF00E
:104E8000FF31024819F0D2F99C36060000190020C3
:104E90002DE9F041904682B00D46064601A94046F4
:104EA000089A1F4618F0E4FD019B93F9001001BB1E
:104EB0000446984508BF3C462B691BB12146304645
:104EC0009847C8B96B892A89591E114206D1012B0E
:104ED00007D0022B09D0042B08BFB45002B0BDE8A4
:104EE000F081B45402B0BDE8F081B45202B0BDE824
:104EF000F0810248FFF7BEFFFFF7BCFFD82806008D
:104F000070B52DED028B844613460C46ADF5027D3F
:104F1000A2494FF4B67227A8CDE90343CDF814C0D7
:104F200019F016FB002127A805F08CFC002840F0A2
:104F300099800023DDF80CC005998A89D0B2002839
:104F400060D095055ED4D40559D4954A9C4513602C
:104F500060DD944819F062F9914B05991B6803EBE9
:104F6000830301EB8302526851F82330002A00F0DA
:104F7000BC80009240218C4A17A8FDF7D7F817A9EA
:104F80008A48FDF79DF84022002007A90CF084FF15
:104F9000041EC0F2B880864807A90DF15C0C0AE037
:104FA000DBB2C25C02F00302022A04BF203B01F81C
:104FB000013C8C4503D011F9013B002BF0D1002CB2
:104FC00057D1774A039913688C46013323EAE37378
:104FD0008B421EDA059903EB830201EB8202918971
:104FE000C8B230B1880504D4CE05AED504990029E5
:104FF000ABD10133634502F11402F0D1A5E7049A65
:10500000002AA2D1039A0133934201F1140194DBE7
:10501000634A13604FF4B672604827A918F0C2FEC5
:10502000C0B10A2327A8ADF8CA3005F0FFFB6148DC
:10503000FDF746F8039A059927A8FFF7B3FC27A8C0
:1050400003F0B6FD45283FF474AF0DF5027DBDECCD
:10505000028B70BD5848FDF733F80DF5027DBDECAD
:10506000028B70BD5548FDF72BF827A805F0FEF917
:105070005FE7BDF81C302F2BCCD0B3F12D0218BF49
:105080000122474B1C68002A41D1631E002BDDF82A
:105090000CC040F31281059A04EB840402EB8402F5
:1050A00032F8081CC8B248B38D0527D4CC0522D4E9
:1050B000039A9A42ACDD059903EB830201EB82026D
:1050C00009E0049900297FF440AF01339C4502F1C7
:1050D00014027FF73AAF9189C8B20028F5D088054D
:1050E000F3D4C9057FF531AFEBE74021344A17A867
:1050F000FDF71CF843E704990029D9D1013BA2F13F
:105100001402CDD1D7E72F48FFF788FA43E7059B74
:1051100007A804EB840603EB860519F08FFA6B8968
:10512000298903F1FF3C024611EA0C0E27A8084426
:105130006FD1012B00F0BB80022B00F0BB80042B51
:1051400000F0BD80734611F0030F55D1282990ED72
:10515000008A00F08F8060D8002950D107A927A8C5
:1051600004F0E2FF002852D12B8927AAD0182B7B0C
:105170006A89012B07A978D019F0EAF9084B1C6855
:10518000039A631C23EAE3739A4294467FF740AF85
:10519000059903EB830201EB820223E0F01C00205F
:1051A000BC18002000190020DC360600E43606009A
:1051B00041FF0600343706001C360600B4360600F0
:1051C000248B060054360600000000000AD71F4159
:1051D000049900297FF4B9AE01339C4502F1140211
:1051E0003FF4B3AE9189C8B20028F5D08805F3D456
:1051F000C9057FF5AAAEEBE728293BD00BD80C29CF
:1052000042D107A927A805F09DF80028ACD0FFF7E8
:1052100031FE002397E71FED148A342934D107ACFF
:10522000204606A918F08AFA069BF0EE407A93F918
:105230000020002A5BD1A34253D0B0EE007AB4EE36
:10524000C70AF1EE10FA4FD41FED207AB4EEC70A68
:10525000F1EE10FA48DC2B7B298927A8012B0844A2
:10526000CDED177A6A8917A986D118F043FF224B32
:105270001C6885E729460A22009227A807AAFFF79B
:1052800007FE1D4B1C687BE7B5F80CE01EF0FC0F19
:105290005FFA8EF116D11EF0FE0F1FD1012914D135
:1052A000624527D8013207A919F052F968E727AB00
:1052B0005B5C48E727AB5B5A45E71346FBE627AB49
:1052C0005B5840E70539012908D9059B0B4853F87D
:1052D0002610FCF7F5FE084B1C6851E72946002212
:1052E000CAE7F0EE487AB6E70548FFF7C3FD054880
:1052F000FFF7C0FD04488AE7BC18002014370600F9
:10530000F8360600D82806000437060030B583B00A
:105310000A23002201A9FEF7B1FD044630B305F0CF
:10532000D1FA019BBBB95B4DE88D16F057FB00220B
:10533000594B16F0E7FC02460B465848FCF7C0FEF6
:10534000284620225649FFF72DFB5648FCF7B8FEA9
:10535000204603B030BD00205349FEF7FFFE40B1A8
:1053600000222046514B1A6003B030BDFFF756F9BA
:10537000D5E74F49FEF7F2FE28B1012220464B4BFC
:105380001A6003B030BD4B49FEF7E8FE0028F4D1A7
:105390004949FEF7E3FE78B14848FCF791FE4848DA
:1053A000FCF78EFE414B20211A683D48B2FA82F28A
:1053B0005209FFF7A5FDCBE74249FEF7CFFE20B12A
:1053C0002046019903F000FDC2E73F49FEF7C6FE03
:1053D00020B12046019903F0FFFDB9E73B49FEF7F4
:1053E000BDFE48B1314B05211A683948B2FA82F244
:1053F000CA40FFF785FDABE73649FEF7AFFE50B96F
:105400002A4D2B688BB900203349FEF7A7FE80B1E7
:1054100005F0A4F89CE7254B04211A682F48B2FA3E
:1054200082F25209FFF76CFD92E72D48FFF7F6F87C
:105430008EE72C49FEF792FE40B12A680121B2FAAC
:1054400082F229485209FFF75BFD81E72749FEF701
:1054500085FE40B12A680121B2FA82F2244852093D
:10546000FFF74EFD74E72349FEF778FE10B105F013
:1054700043FA6DE72049FEF771FE10B105F05AFAC4
:1054800066E71E49FEF76AFE0028CED005F078FADE
:105490005EE700BFF01C00200000244048370600F3
:1054A000F0AD06001C340600943706008C0700207F
:1054B0009C370600A4370600AC370600B437060058
:1054C00020380600583806006038060068380600A4
:1054D0008CAD06006C380600743806003CAD060042
:1054E000A43806007C38060014AD06008438060097
:1054F00028AD060088380600903806009C38060063
:1055000010B5094C82B00094084C0023084A0949A0
:105510000948FFF70DF80023084A09490948009493
:10552000FFF706F802B010BDC1470400B5470400FC
:105530000D530400B4380600CC380600B94B040003
:10554000D0380600E8380600704700BF10B5064C9A
:105550002046FCF7B5FD0548FCF7B2FD2046BDE846
:105560001040FCF7ADBD00BF1C3406007C3B0600BC
:1055700008B50D48FCF7A4FD0C48FCF7A1FD0C484C
:10558000FCF79EFD0B48FCF79BFD0B48FCF798FDD4
:105590000A48FCF795FD0A48FCF792FDBDE8084073
:1055A0000848FCF78DBD00BF1C340600A43B060074
:1055B000F03B0600043C0600983C0600D43C060084
:1055C0003C3D0600A43D060008B50548FCF778FD03
:1055D0000448FCF775FDBDE808400348FCF770BDC2
:1055E0002C3E06003C3E0600DC3E06002DE9F0475E
:1055F00082B00823002201A9FEF740FC8046002863
:1056000000F08180019C002C62D000243F4FDFF825
:105610000C91DFF80CA10DE000210A2208460BF0E6
:105620006FF80A22012100200BF06AF8019B013477
:10563000A34215D939462046FEF790FD05460028BD
:10564000EAD149462046FEF789FD064660B10A22A6
:10565000294628460BF054F8019B0134A342E9D8AF
:10566000404602B0BDE8F08751462046FEF776FD81
:10567000054628B130460A2201210BF041F8D5E752
:1056800020462349FEF76AFD064650B129460A2204
:1056900001200BF035F801210A2208460BF030F802
:1056A000C4E720461B49FEF759FD28B131460A22BE
:1056B00001200BF025F8B9E720461749FEF74EFD0B
:1056C0000028B3D001210A2208460BF019F8ADE7F3
:1056D0000A22214620460BF013F80A220121204617
:1056E0000BF00EF80A22214601200BF009F80121E7
:1056F0000A2208460BF004F8019B002B85D1404696
:1057000002B0BDE8F087FEF789FF7BE7045E060084
:105710003C3F0600403F0600443F0600343F060081
:10572000383F0600F0B50022012487B0082304A901
:1057300005940392FEF7A2FB0646002874D00024CD
:10574000049B0294002B45D0394D3A4F04E00134BC
:10575000049B0134A3421AD92946204605AAFEF724
:1057600019FD0028F3D13946204603AAFEF712FDA1
:105770000028ECD1214602A803F016FB0028E7DA46
:105780002D48FEF74BFF049B0134A342E4D8029955
:1057900011F44C5F37D001F0300313B941F0100120
:1057A00002918B0718D0254BDB7F13B921F4407190
:1057B0000291059B0BB901230593214803F002FADE
:1057C000029803F0CDFA58B1304618F037FF304454
:1057D00007B0F0BD43F2103141F003010291E2E75E
:1057E00001244FF0FF31039B059A0298009409F0C1
:1057F000EFFB78B91348FCF763FC304618F01EFF46
:10580000304407B0F0BD41F44C5201F03003029235
:105810001146C2E701460C48FCF752FC304618F02E
:105820000DFF304407B0F0BDFEF7F8FE87E700BF7C
:10583000483F06004C3F0600503F0600A06E002087
:10584000643F0600743F0600883F06002DE9F047DC
:10585000044682B003F0A4FB08230022204601A9DD
:10586000FEF70CFB8046002869D0019C002C40D03C
:105870000024344E2546DFF8DC90334F06E057F81D
:10588000203001341D43019BA3420DD90122314632
:105890002046FEF71BFD0028F1DA4846FEF7BEFE63
:1058A000019B0134A342F1D8284FFB7F43B315F489
:1058B000405F4FEA1524C5F3012A4FEA153605D19A
:1058C000BAF1000F15D02646012500E000254FF063
:1058D0000009F20725D4B30715D425B926460125BA
:1058E000BAF1000FF5D1B9F1000F02D01848FCF75A
:1058F000E7FB404618F0A2FE404402B0BDE8F08746
:1059000025F44075D3E778680222A0F10100B0FACF
:1059100080F02946FB6840090AF09EFC49EA00092C
:10592000DBE778680122A0F10100B0FA80F0294697
:10593000FB6840090AF090FC49EA0009CBE7FEF752
:105940006DFE92E79007002070B00600A06E002068
:10595000A8850600503F060010B50D4C82B000949B
:105960000C4C00230C4A0D490D48FEF7E1FD009454
:105970000C4C00230C4A0D490D48FEF7D9FD0023BD
:105980000C4A0D490D480094FEF7D2FD02B010BD3F
:10599000C9550400715504004D580400A03F06008D
:1059A000B03F06004D55040025570400B43F0600E3
:1059B00058380600ED550400C03F0600D03F0600F1
:1059C000F0B52DED028B85B00223002201A9FEF770
:1059D00055FA0446002857D0019D022D37D03DB11D
:1059E0004648FEF71BFE204605B0BDEC028BF0BD1D
:1059F00002A9284605F024F903A9012005F020F9A1
:105A00003F480CF015F92946284605F019F92946B2
:105A10000646012005F014F903462846029F1D465C
:105A200005F024F93246034639463648FCF748FB70
:105A30000120039E05F01AF92A46034631463248F2
:105A4000FCF73EFB204605B0BDEC028BF0BD00200C
:105A50002E49FEF783FB80B10025012003A92C4AC3
:105A6000FEF7E8FA2846039905F0D8F80028BAD0DE
:105A700001462848FCF724FBB5E72749FEF76EFBF3
:105A8000054620B10125E8E7FEF7C8FDA4E7234954
:105A9000FEF764FB18B92248FEF7C0FDDCE70120E1
:105AA000204A02A9FEF7C6FA284603A905F0C8F85D
:105AB00014269FED1D8A1D4FDDED027AF0EE480A97
:105AC000B8EEE70A002005F0FDF8034603A9002020
:105AD000039305F0B5F80546002005F0C7F82A46FF
